{
  "_format": "hh-sol-artifact-1",
  "contractName": "Random",
  "sourceName": "contracts/Random.sol",
  "abi": [
    {
      "inputs": [],
      "name": "Generate_Number",
      "outputs": [
        {
          "internalType": "uint8",
          "name": "",
          "type": "uint8"
        }
      ],
      "stateMutability": "nonpayable",
      "type": "function"
    },
    {
      "inputs": [],
      "name": "rand_num",
      "outputs": [
        {
          "internalType": "uint8",
          "name": "",
          "type": "uint8"
        }
      ],
      "stateMutability": "view",
      "type": "function"
    }
  ],
  "bytecode": "0x608060405234801561001057600080fd5b50610345806100206000396000f3fe608060405234801561001057600080fd5b50600436106100365760003560e01c8063678892c01461003b5780639897c24014610059575b600080fd5b610043610077565b6040516100509190610124565b60405180910390f35b610061610088565b60405161006e9190610124565b60405180910390f35b60008054906101000a900460ff1681565b6000804340905060004282336040516020016100a69392919061020f565b6040516020818303038152906040528051906020012060001c905060016014826100d0919061027b565b6100da91906102db565b6000806101000a81548160ff021916908360ff16021790555060008054906101000a900460ff169250505090565b600060ff82169050919050565b61011e81610108565b82525050565b60006020820190506101396000830184610115565b92915050565b6000819050919050565b6000819050919050565b61016461015f8261013f565b610149565b82525050565b6000819050919050565b6000819050919050565b61018f61018a8261016a565b610174565b82525050565b600073ffffffffffffffffffffffffffffffffffffffff82169050919050565b60006101c082610195565b9050919050565b60008160601b9050919050565b60006101df826101c7565b9050919050565b60006101f1826101d4565b9050919050565b610209610204826101b5565b6101e6565b82525050565b600061021b8286610153565b60208201915061022b828561017e565b60208201915061023b82846101f8565b601482019150819050949350505050565b7f4e487b7100000000000000000000000000000000000000000000000000000000600052601260045260246000fd5b60006102868261013f565b91506102918361013f565b9250826102a1576102a061024c565b5b828206905092915050565b7f4e487b7100000000000000000000000000000000000000000000000000000000600052601160045260246000fd5b60006102e68261013f565b91506102f18361013f565b9250828201905080821115610309576103086102ac565b5b9291505056fea2646970667358221220d2da883dc0d46318b4dbc65e8dc7ca8766c4c96e855c6fad3e7534f74366d65864736f6c63430008110033",
  "linkReferences": {},
  "deployedLinkReferences": {}
}